:100000000C9472000C947C000C947C000C947C008A
:100010000C947C000C947C000C947C000C947C0070
:100020000C947C000C947C000C947C000C947C0060
:100030000C947C000C947C000C947C000C947C0050
:100040000C947C000C947C000C947C000C947C0040
:100050000C947C008A00A300BC00D500ED00ED00EC
:10006000ED00ED00ED00ED00ED00ED00ED00ED0028
:10007000ED00ED00ED00ED00ED00ED00ED00ED0018
:10008000ED00ED00ED00ED00ED00ED00ED00ED0008
:10009000ED00ED008A00A300BC00D500FA001301BA
:1000A0002C0145015D015D015D015D015D015D01A9
:1000B0005D015D015D015D015D015D015D015D0150
:1000C0005D015D015D015D015D015D015D015D0140
:1000D0005D015D015D015D015D015D01FA001301DE
:1000E0002C01450111241FBECFE5D8E0DEBFCDBFF6
:1000F0000E946A010C94F8010C94000090E0FC014D
:10010000E154F109E432F10508F067C0E65DFF4F04
:100110000C94F201413059F42AB381E090E002C01E
:10012000880F991F6A95E2F7822B8ABB08952AB33C
:1001300081E090E002C0880F991F6A95E2F78095F0
:1001400082238ABB0895413059F427B381E090E0BF
:1001500002C0880F991F6A95E2F7822B87BB08952A
:1001600027B381E090E002C0880F991F6A95E2F7FB
:100170008095822387BB0895413059F424B381E0F0
:1001800090E002C0880F991F6A95E2F7822B84BB2A
:10019000089524B381E090E002C0880F991F6A950A
:1001A000E2F78095822384BB0895413059F421B34E
:1001B00081E090E002C0880F991F6A95E2F7822BD8
:1001C00081BB089521B381E090E002C0880F991FA0
:1001D0006A95E2F78095822381BB089590E0FC0147
:1001E000E154F109E432F10508F067C0E25BFF4F2A
:1001F0000C94F201413059F42BB381E090E002C03D
:10020000880F991F6A95E2F7822B8BBB08952BB359
:1002100081E090E002C0880F991F6A95E2F780950F
:1002200082238BBB0895413059F428B381E090E0DC
:1002300002C0880F991F6A95E2F7822B88BB089548
:1002400028B381E090E002C0880F991F6A95E2F719
:100250008095822388BB0895413059F425B381E00D
:1002600090E002C0880F991F6A95E2F7822B85BB48
:10027000089525B381E090E002C0880F991F6A9528
:10028000E2F78095822385BB0895413059F422B36B
:1002900081E090E002C0880F991F6A95E2F7822BF7
:1002A00082BB089522B381E090E002C0880F991FBD
:1002B0006A95E2F78095822382BB089541E00E940F
:1002C0007E00089541E00E94EE00089540E00E9403
:1002D000EE00089560E875E280E090E00E94A501DC
:1002E00060E081E40E945E0161E081E40E945E01C1
:1002F00062E081E40E945E010E94CC018E36C1F072
:1003000018F4873681F0F8CF823719F0893731F049
:10031000F3CF60E081E40E946201EECF61E081E40E
:100320000E946201E9CF62E081E40E946201E4CFB1
:1003300060E081E40E94660162E081E40E9466015F
:1003400061E081E40E946601D7CFDC01CB01880F18
:10035000991FAA1FBB1F880F991FAA1FBB1F9C01B3
:10036000AD01220F331F441F551F220F331F441F9F
:10037000551F60E072E18AE790E00E94D0012150B1
:10038000310930BD29B98AB188608AB98AB18061E2
:100390008AB986E880BD08955F9BFECF8CB1089531
:1003A000A1E21A2EAA1BBB1BFD010DC0AA1FBB1F79
:1003B000EE1FFF1FA217B307E407F50720F0A21BEB
:1003C000B30BE40BF50B661F771F881F991F1A9458
:1003D00069F760957095809590959B01AC01BD0182
:1003E000CF010895EE0FFF1F0590F491E02D0994C1
:0403F000F894FFCFAF
:00000001FF
